:100000000C9489010C948E1C0C94A6010C94A601EE
:100010000C94A6010C94A6010C94A6010C94A601C4
:100020000C94A6010C94A6010C94B1210C9484228A
:100030000C94F81A0C94A6010C94A6010C94A60139
:100040000C94A6010C94A6010C94A6010C94A60194
:100050000C94A6010C94B01B0C94A6010C94A60160
:100060000C94A6010C94A6010C94A6010C94A60174
:100070000C94A6010C94A6010C94A6010C94A60164
:100080000C94A6010C94A6010C94A6010C94A60154
:100090000C94A6010C94A6010C94A6010C94A60144
:1000A0000C94A6010C94A6010C94A601290014003E
:1000B0001A000800150017002B00040016000700A6
:1000C00009000A00E1001D001B00060019000500E0
:1000D0000000E000E2002252E3002A002A001300A0
:1000E00012000C0018001C00280033000F000E0046
:1000F0000D000B00340038003700360010001100EE
:100100000000270226022152E7002C0029005F0090
:1001100060006100000000002B005C005D005E00DC
:1001200000000000E10059005A005B0000000000E0
:100130000000620063002252000000002A0000005C
:100140000000000000000000000000004F0052000E
:10015000510050002800310030002F002E002D00EB
:100160000000000000002152000000002B002402CB
:1001700025020000000000002900210222022302C3
:1001800000000000E1001E021F022002000000002B
:1001900000000000000022520000000000000000EB
:1001A000000000000000000000000000000000004F
:1001B0000000000028000000000000000000000017
:1001C000000000000000215200002C001C034C0025
:1001D0006500740073002000530070006C0069001B
:1001E00074002000760032000000160357006F00F4
:1001F0006F0074007000610074006F006F00740085
:1002000000000403090409023B00020100A0FA09EE
:100210000400000103010100092111010001224431
:100220000007058103080001090401000103000023
:1002300000092111010001227B0007058203200033
:10024000011201000200000008776F0200020001A5
:1002500002000105010902A10185020901A10005B1
:100260000919012908150025019508750181020564
:1002700001093009311581257F950275088106092C
:10028000381581257F950175088106050C0A38020D
:100290001581257F950175088106C0C0050109807B
:1002A000A101850319012AB700150126B7009501A0
:1002B00075108100C0050C0901A101850419012AEE
:1002C000A002150126A002950175108100C005014C
:1002D0000906A101050719E029E715002501950880
:1002E000750181029501750881010507190029FF33
:1002F000150026FF009506750881000508190129DB
:10030000051500250195057501910295017503916B
:1003100001C011241FBECFEFDAE0DEBFCDBF11E078
:10032000A0E0B1E0E2EEFAE402C005900D92A63A38
:10033000B107D9F722E0A6EAB1E001C01D92A63AC2
:10034000B207E1F70E94F9130C940A250C940000FF
:100350008330B8F46830A8F4463098F4E42FF0E025
:1003600096E0699FE00DF11D112490E3899FE00D57
:10037000F11D1124EE0FFF1FE455FF4F859194915D
:10038000089581E090E008950E94A801089581E019
:1003900008950E94C701089581E008950E94C70151
:1003A00008950E94CE01089508950E94D4010895F1
:1003B000A6E0B0E0EEEDF1E00C94662449835A83A8
:1003C0009E833091AD0189819A8131111AC03E819D
:1003D000332399F0222389F00E94EB07182F682F0E
:1003E00089819A810E94C70769817A81812F0E9441
:1003F000950E2696E3E00C9482240E94D907182FCC
:10040000F3CF0E94EB0769817A81F1CFFC01262F9F
:100410004081518162817381848195810E94D801DC
:100420000895CF93DF93D82FC92F61E00E94060271
:100430006D2F7C2F0E94C901DF91CF910895CF933A
:10044000DF93D82FC92F60E00E9406026D2F7C2F0A
:100450000E94D501DF91CF91089581E008950E9417
:100460002D020895CF93C82F0E9498068C2F0E94CA
:100470002F022FEF84E39CE0215080409040E1F771
:1004800000C00000CF91089581E00E9432020E94D6
:10049000D41B089580E00E9432020E94E51B08955B
:1004A0000F931F93CF93DF938C0161E00E940602AC
:1004B000EC01B8010E94D101811106C080E0DF91FA
:1004C000CF911F910F910895B801CE010E94541948
:1004D0008823A1F3B801CE010E948015882371F30F
:1004E000B801CE010E945615882341F3F801858199
:1004F000882381F0CA35FCE7DF0711F178F4C130B9
:10050000ECE7DE07D1F0C330FCE7DF07A1F0C1154F
:10051000DC4771F0C8010E94CC01D1CFCB35ECE7AC
:10052000DE0789F0CC35DC47A9F70E94E40BF2CF57
:100530000E944402C3CF0E94F60B0E944A02BECF23
:100540000E94EE0BE7CF0E94F20BE4CF0E94D51A77
:100550000E94CD0208950E94D1020E94DA1A0895E5
:10056000089581E008950895CF93DF93D82F0E94D6
:10057000B102C82F882319F08D2F0E94B3028C2F4F
:10058000DF91CF9108950895CF93C82F0E94B002B4
:100590008C2F0E94B402CF91089580E00E94C40283
:1005A00008950E949C190E94C4020895CF930E944E
:1005B0009C19C82F8091A8018C1779F0C093A801CD
:1005C0000E94641B6093A9017093AA018093AB0100
:1005D0009093AC018C2F0E94C402CF910895ADE09E
:1005E000B0E0E5EFF2E00C946724488759876A870A
:1005F0007B878C879D8791110E94240B1F8286E048
:10060000FE013896DE01119601900D928A95E1F770
:100610008D8181110DC029813A814B815C816D8171
:100620007E818F810E946B0A2D96E2E00C948324D8
:10063000CE0101960E9411028111EDCFF5CFFC0190
:100640008481813021F4808191810E941D08089568
:10065000662329F00E94E1160E94C61708950E94A1
:100660004D17FACFCF93C82F8823C9F08238C9F429
:100670000E94B01981FD13C089E30E946B1A0E9489
:10068000930B2FEF37EE83E0215030408040E1F7AD
:1006900000C0000089E30E94731A0E94930BCF915F
:1006A00008958338A1F40E94B01980FDF8CF83E546
:1006B0000E946B1A0E94930B9FEF21EE34E0915041
:1006C00020403040E1F700C0000083E5E4CF8438EB
:1006D000A1F40E94B01982FDE2CF87E40E946B1A58
:1006E0000E94930B8FEF91EE24E0815090402040C8
:1006F000E1F700C0000087E4CECF8CEF8C0F813A89
:1007000098F48C2F0E9483148111C9CF8C2F0E94E2
:100710002E1A882329F08C2F0E94731A0E94930BA3
:100720008C2F0E946B1AB9CF80E28C0F883048F46E
:10073000C77081E001C0880FCA95EAF70E94050BD7
:10074000ACCF8BE58C0F833038F42C2F2452330B35
:10075000C9010E94CD19A3CFE8E5EC0FEB3150F4AD
:10076000F0E0EE0FFF1FE25DFE4F808191810E945D
:10077000F31995CF83E38C0F833108F090CF61E0BC
:100780008C2F0E9428038BCF882309F456C082380F
:1007900079F40E94B01981FF50C089E30E946B1A5E
:1007A0000E94930B89E30E94731A0E94930B089591
:1007B000833859F40E94B01980FF3FC083E50E943E
:1007C0006B1A0E94930B83E5EECF843859F40E9494
:1007D000B01982FF32C087E40E946B1A0E94930B0B
:1007E00087E4E1CF9CEF980F913AE8F290E2980FFE
:1007F000983050F4877091E001C0990F8A95EAF71C
:10080000892F0E940B0BD1CF9BE5980F933028F4D2
:1008100090E080E00E94CD19089598E5980F9B31F3
:1008200028F490E080E00E94F319089593E3980F74
:10083000933118F460E00E94280308951F93CF932A
:10084000DF93182FEB010E943203209739F4812F98
:100850000E94C403DF91CF911F9108958FE99FE01B
:100860000197F1F700C000002197EFCF70E060E042
:10087000893311F460E570E00E941E040895882316
:1008800021F00E94050B0E94930B0895882321F00C
:100890000E940B0B0E94930B0895B0E0A0E0E3E5EB
:1008A000F4E00C945F246C01D62FC72FFC01158156
:1008B000068102950F700E94FB0AE82E8823F9F04A
:1008C000E12E1123E1F08C2F807F803461F080E2F3
:1008D0008D0F883000F18C2F807E803221F4D23051
:1008E000D0F00023C1F08091820282FF14C082E028
:1008F0000E94B80B0E94FB0A91E0E82EE9268C2F9B
:1009000082958F70A82EB12C8C30B0F5F501E45F84
:10091000FA4D0C945124E12CF2CF0C2F0F70C07FB4
:1009200011F00295007F112399F0002359F080E225
:100930008D0F883010F0D11107C0802F0E94050B59
:100940000E94930B8D2F5CC0802F0E94160BF8CF56
:100950008D2F0E94C403002379F080E28D0F883030
:1009600010F0D11104C0802F0E940B0B03C0802F08
:100970000E941C0B0E94930B88E0A81AB10894E017
:10098000A916B10420F40E949C190E94C402EE2012
:1009900089F00E94F70A80FD0DC0F60115820E94C1
:1009A000F10A0E942407C6010E945F060E94F10A14
:1009B0000E943407CDB7DEB7EAE00C947B24FC2F0D
:1009C000FF70FF2EC07FC03219F0F29480EFF82242
:1009D000DD2341F0D130D1F1112309F444C00023CB
:1009E000F1F0B0CF8091820282FD15C0112359F041
:1009F000FF2029F08F2D0E94050B0E94930B80E0B1
:100A00000E943203B9CF80E00E94C403FF2009F4A2
:100A1000B3CF8F2DA9CF112369F0011104C08F2D01
:100A20000E943F04A9CF013009F0A6CF8F2D0E946C
:100A30003B0BA2CF0111A0CF8F2D0E9446048F2D1A
:100A40000E94470B8F2D0E942B0B96CF112321F074
:100A5000063008F091CFE3CF053008F08DCF8F2D11
:100A60000E94460489CF0023D1F3D93349F42FEFF4
:100A700087EE93E0215080409040E1F700C00000F5
:100A80008D2F0E94C40378CF8C2F86958695837016
:100A900069F0813009F070CF8D2F9C2F9370111168
:100AA00002C080E090E00E94F31966CF8D2F9C2F4A
:100AB0009370111102C080E090E00E94CD195CCFCC
:100AC000612F8D2F0E94280357CF8C2F8370A9F59B
:100AD000111152CF4D2F429546954770440F440F48
:100AE0002D2F2F7030E0042E02C0220F331F0A94E6
:100AF000E2F790E080E0D4FF09C08FE090E002C010
:100B0000880F991F4A95E2F780959095C695C695EE
:100B1000C370822B932BC23051F0C33059F0C130D7
:100B200019F00E94F40628CF0E94EB0625CF0E9400
:100B3000FD0622CF0E94E8061FCF8695112311F0F3
:100B40008C2F8170882309F417CF4D2F429546953D
:100B50004770440F440F2D2F2F7030E0042E02C039
:100B6000220F331F0A94E2F790E080E0D4FF09C01F
:100B70008FE090E002C0880F991F4A95E2F78095B8
:100B80009095C695C695C370822B932BC23051F0B9
:100B9000C33059F0C13019F00E945F07EDCE0E94BA
:100BA0005607EACE0E946807E7CE0E940C07E4CE03
:100BB000CF70112329F08C2F0E9424078D2F30CF66
:100BC0008D2F0E9446048C2F0E943407D5CED23F31
:100BD00041F160F4D03FB9F0D13F81F0112309F425
:100BE00046C00111AFCE8C2F8F711FC0D33F01F1D2
:100BF000D43FA1F78091820282FD24C08C2F8F7197
:100C0000112311F312C0112341F0053008F0B4CEC6
:100C10008C2F8F710E944607AFCE063008F0ACCE05
:100C2000F7CF8C2F8F711111CFCF0E942407A4CE44
:100C3000112329F08C2F8F710E9418079DCE0E94DE
:100C400013079ACE112349F0CF718C2F0E942407ED
:100C500063E08C2F0E949A0B8FCE81E00E94B80B2C
:100C6000023008F489CE82E00E94B80B85CE0023C2
:100C700059F0D93309F004CFEFEFF7EE23E0E1505C
:100C8000F0402040E1F7FACE8C2F8F719DCF0F936B
:100C90001F93CF93DF93EC01688179818D810E944E
:100CA0002A088C010E9471070E94E706B801CE0154
:100CB0000E944D04DF91CF911F910F910895CF9322
:100CC000DF93EC018C81882399F0CE010E945002C1
:100CD000811111C00E94FB0A882351F08D81882365
:100CE00039F08091820282FF03C082E00E94B80B3B
:100CF000DF91CF910895CE010E944706CE010E9458
:100D00001F02F6CF90E080E00E94CD1990E080E0D5
:100D10000E94F3190E94240B0E94930B0E94E1177A
:100D20000E94C61708950E947B1A0E9482060895A9
:100D30000E94130B0E9493060895282F92959F708E
:100D4000963091F060F4925F9F70923030F481E0C1
:100D5000203F81F030F4283E30F080E008959A5F23
:100D6000F3CF243FD1F7089581E0283EE0F3213FFF
:100D7000A1F7F9CF0895FC018481882339F080819F
:100D800091810E941D080E949D06089580E00895AB
:100D9000A6E0B0E0EEECF6E00C9467242696E2E0E4
:100DA0000C948324A7E0B0E0E8EDF6E00C9467240F
:100DB0002796E2E00C94832408950E94DC060895AF
:100DC0000E94DD069093C9018093C801089508959B
:100DD0000E94E00608952091C8013091C901822B3C
:100DE000932B0E94E00608952091C8013091C9011B
:100DF000822393230E94E00608952091C801309138
:100E0000C901822793270E94E00608950E94DC060C
:100E100008950E94060708950E9409079093C7014C
:100E20008093C601089590E080E00E940C07089529
:100E300021E030E0A90102C0440F551F8A95E2F776
:100E4000CA010E940C07089521E030E002C0220F81
:100E5000331F8A95E2F78091C6019091C701822BDA
:100E6000932B0E940C07089521E030E002C0220F6E
:100E7000331F8A95E2F7209530958091C6019091B5
:100E8000C701822393230E940C07089521E030E0DC
:100E900002C0220F331F8A95E2F78091C60190911C
:100EA000C701822793270E940C0708952091C6014D
:100EB0003091C701822B932B0E940C07089520913B
:100EC000C6013091C701822393230E940C07089525
:100ED0002091C6013091C701822793270E940C07F9
:100EE000089508959B01677091E001C0990F6A957C
:100EF000EAF763E0369527956A95E1F7220F331FED
:100F0000220F331FFA01E20FF31F50E040E0682F79
:100F100070E08191DF0111979B01042E02C036958C
:100F200027950A94E2F7217021952827292328275D
:100F30002C934F5F5F4F4430510559F708959C0142
:100F4000982F977083E0369527958A95E1F7220FC1
:100F5000331F220F331FFB01E20FF31F50E040E06D
:100F600080E0219130E0092E02C0369527950A9441
:100F7000E2F721703327042E01C0220F0A94EAF70A
:100F8000822B4F5F5F4F4430510559F70895282F4A
:100F9000862F983068F4263058F4622F70E026E0EF
:100FA000929F600D711D11244EEA51E00E9472075C
:100FB0000895292F983068F4863058F490E06EEA4E
:100FC00071E036E0239F800D911D11240E949F0740
:100FD000089580E00895B0E0A0E0E1EFF7E00C9420
:100FE00060248C01E090C601F090C7018091C80197
:100FF0009091C901E82AF92ACFE0D0E0CC24C3942B
:10100000D12CBC2EC6010C2E02C0880F991F0A9449
:10101000E2F78E219F21892B49F4219790F7B12C7B
:101020008B2DCDB7DEB7E9E00C947C24B8018C2F72
:101030000E94A10E019789F3F3CFCF93DF93D82FAE
:10104000C92F0E94EB076D2F7C2F0E94A10EDF910C
:10105000CF9108951F93CF93DF93162FD72F9091A1
:10106000AD01992341F0862F972F0E941D08DF9133
:10107000CF911F910895882381F0862F972F0E948A
:10108000EB07C82F682F812F9D2F0E94C707612F64
:101090007D2F8C2F0E94A10EEACF862F972F0E94C2
:1010A000D907C82FF4CF1F93CF93DF93E091CA01E4
:1010B00017E08091CB018E1304C0DF91CF911F9177
:1010C0000895CE2FD0E01E9FF0011124E453FE4F6F
:1010D00020813181428153816481758186810E94A2
:1010E000D206FE013196E770E4CF209104023091E0
:1010F000050240910602509107026091080270912A
:10110000090280910A020E94D2060895CF93DF93CC
:1011100080910A02807F09F04DC0809109028823E6
:1011200009F448C0E091CA015091CB01C091050279
:10113000D0910402609106027091070247E05E17A9
:10114000C9F18E2F90E0E49FF0011124E453FE4F8B
:101150002481222391F1489FF001499FF00D112431
:10116000DF01A453BE4F11962C9111972C1325C06B
:101170002C912D1322C015962C91159721111DC06D
:1011800012962D913C91261B370B283C3105A8F473
:1011900080910A028F70806180930A02EE52FE4FA6
:1011A00080818F708061808384E092E00E945F067E
:1011B0000E945308DF91CF910895FC013196E770AA
:1011C000BECF982FE091CA014091CB0157E0E413C4
:1011D00002C080E008952E2F30E05E9FF0011124C0
:1011E000E453FE4F8181681306C08081981303C0C9
:1011F00085818111EFCFF9013196E770E8CFADE03D
:10120000B0E0E5E0F9E00C945D248C0186E0F801A3
:10121000DE01189601900D928A95E1F7F80184811C
:10122000E58094E0A92E92E0B92E909108029111E8
:101230001FC08823D1F0EE20A9F0C8010E94BB0690
:10124000F82E882379F087E0F801D50101900D92FE
:101250008A95E1F7C5010E941F030E9486080E943B
:1012600075085FC0C8010E945F06FF24F39459C04F
:10127000C080D18082809380F09009022091060284
:1012800030910702A401421B530BFF2009F4DBC07D
:10129000483C510508F0A7C0882309F442C090914A
:1012A000050280910A02282F207F09F05CC0D91224
:1012B00016C090910402C91212C0E1104EC08F7086
:1012C000806180930A020E94750884E092E00E9487
:1012D0005F0680910A02F8018683F12C22C0E1109A
:1012E0003CC06D2D8C2D0E94E1086D2D8C2D0E942F
:1012F000E108E82E8111F1CFC886D98688859985C5
:101300000E941D08292F22952F70903478F49F7029
:101310002230A8F09923B9F0F8019681907F99F4D2
:10132000FE2C8F2D2D96ECE00C9479242A5F2F70E3
:10133000223068F0C8010E945F06EF2CF1CF99239C
:1013400011F0882369F3805E883050F3F3CF803F3B
:1013500038F3815F833020F3EDCF80910A02816002
:1013600080930A02BACFD91213C090910402C91215
:101370000FC0E1100DC08683C8010E945F0687E0A0
:10138000F801A4E0B2E001900D928A95E1F767CFF1
:10139000C8010E94BB06882309F464CFEE2009F43B
:1013A00061CF80910A02803288F02091040230914E
:1013B00005023A8329839C828B82909108029D8347
:1013C0001E828F83CE0101960E945F0687E0F8019E
:1013D000A4E0B2E001900D928A95E1F70E948608A0
:1013E0000E94750842CF90910A02292F207FA1F414
:1013F000682D9B868A86A6017B859E2D0E94C80645
:1014000084E092E00E945F0687E0F50111928A95E0
:10141000E9F70E94750861CF882309F482CF809193
:1014200005028D11B5CF80910402C812B1CFE11031
:10143000AFCF9683C8010E945F0687E0F501119245
:101440008A95E9F76ECF483C5105B8F5882309F431
:101450000CCFFE2CEE2009F405CF809105028D11F2
:101460001EC080910402C8121AC080910A0280FD39
:101470000DC0982F907F51F08683903F09F47CCF68
:10148000982F907F905F8F70892B75CF87E0F80140
:10149000A4E0B2E001900D928A95E1F742CFC80135
:1014A0000E94BB06811192CF80910A0281608093D5
:1014B0000A02C8010E945F0634CF682D9B868A8687
:1014C000A6017B859E2D0E94C80687E0F50111923A
:1014D0008A95E9F7C4CEAEE0B0E0E1E7FAE00C941B
:1014E0006624288739874A875B876C877D878E8744
:1014F000CE0108960E94FF088823B1F06C85662310
:1015000041F0288539854A855B857D858E850E94D9
:10151000D20617E08091CA019091CB0189133EC099
:101520002E96E3E00C94822487E0FE013896DE01DB
:10153000119601900D928A95E1F74C85442349F369
:101540002091CB0130E0C901019687709927509115
:10155000CA0158171906A1F04D8397E0929FD00158
:10156000939FB00D1124A453BE4FFE0131960190FC
:101570000D929A95E1F78093CB010E945308C9CF51
:101580000E9498061092CB011092CA0187E0E4E015
:10159000F2E0DF011D928A95E9F7BBCF819FC00180
:1015A000112484539E4F0E94FF08882309F4B8CF6A
:1015B000E091CA011E9FF0011124E453FE4F2081E7
:1015C0003181428153816481758186810E94D20676
:1015D0008091CA0190E00196877099278093CA0193
:1015E00099CF80911302869586958695089580916E
:1015F00013028770089590911302977081E009F4A7
:1016000080E0089580911F02089590911F02982B09
:1016100090931F020895982F909580911F0289231F
:1016200080931F02089510921F02089590911E0248
:10163000982B90931E020895982F909580911E02EA
:10164000892380931E02089510921E020895089522
:101650000E94270B089590911402292F282331F01E
:1016600080958923809314020E94280B0895089581
:101670000E94370B089590911502292F28232817CF
:1016800029F0982B909315020E94380B08959091A1
:101690001502292F282331F0809589238093150284
:1016A0000E94380B089580911502882329F010922A
:1016B000150280E00E94380B08950F931F93CF937B
:1016C000DF930091000110910101C0911F028091F0
:1016D0001E02C82B80911502882331F0C82B0E946E
:1016E000191A81110E94530BF801C083C0910001A7
:1016F000D091010148E050E06BE072E0CE010E9421
:10170000A224892B59F088E0FE01ABE0B2E0019001
:101710000D928A95E1F7CE010E94B319DF91CF9126
:101720001F910F9108950E945D0B089508950E94E6
:10173000960B08959091820292FF11C098E0899FC4
:1017400090011124622B609313020E942407809160
:1017500013028695869586950E94970B08950E94A0
:10176000240708951092130280E00E94970B0895B9
:10177000909113028095892380931302282F27705C
:1017800069F4891759F09091820292FF07C08695FB
:10179000869586950E9434070E94B20B0895909119
:1017A000820292FB222720F9281769F080FB92F928
:1017B0009093820280918102909182020E94170C84
:1017C00082E00E94B80B08958091820282FB8827F4
:1017D00080F991E089270E94CF0B089581E00E9453
:1017E000CF0B089580E00E94CF0B08956FEF7FEF3D
:1017F00090E080E00E94F424089590E080E00E9450
:10180000C0249C0181E0263E3E4F09F080E008950F
:1018100082E090E00E94B824089583E090E00E9466
:10182000B824089584E090E00E94C0240895BC018B
:1018300084E090E00E94F4240895AB01BC018FE0A5
:1018400090E00E94E8240895AB01BC0183E190E0A0
:101850000E94E824089560E070E0CB010E94240C0F
:10186000089560E070E0CB010E941D0C0E942B0CDB
:101870000895A8E0B0E0EFE3FCE00C94672466EE86
:101880007EEF90E080E00E94F42460E082E090E04F
:101890000E94D62481E090E09093C9018093C80112
:1018A00061E083E090E00E94D62460E074E184E08F
:1018B00090E00E94F42460E086E090E00E94D6244C
:1018C0006FEF87E090E00E94D62440E050E0BA013C
:1018D00088E090E00E94E82460E084E290E00E94CA
:1018E000D62460E087E190E00E94D62460E08CE09E
:1018F00090E00E94D62460E08DE090E00E94D62423
:1019000019821A821B821C821D821E821F821886E7
:1019100048E050E068E170E0CE0101960E94C624E4
:1019200040E050E0BA0180E290E00E94E8240E948A
:10193000310C2896E2E00C9483240E94390C08951F
:10194000682F8EE090E00E94D6240895A6E0B0E0D3
:10195000ECEAFCE00C9465240E94581B8C018091F9
:101960002002909121028017910781F019821A823A
:101970000E94581B682F49815A81792F80E090E09E
:101980000E94EF0210932102009320022696E4E0C9
:101990000C9481240E94C90F60932E0270932F0231
:1019A000809330029093310260932A0270932B024D
:1019B00080932C0290932D020895089508950E941B
:1019C000DD0C089508950E94E20C089581E00895C9
:1019D0008CEF9FE00E9406140E94DE0C0E94DF0C38
:1019E00008950E94E5110895089508950E94F40C49
:1019F0000E94F50C08950E94FF0F0E94C3020895F3
:101A00000E944F1B0E94970F0E94EB110E94311100
:101A10000E94FB0C0E943E150E94FD110E94E30CE7
:101A20000895A6E0B0E0E7E1FDE00C945E240E949A
:101A3000E60C81110CC00E94A60C0E94E5110E94C8
:101A400002180E94D6022696EBE00C947A240E949B
:101A5000541182E2A82E82E0B82E750110E0F70141
:101A600001917F01812F0E9425101F5F183009F41A
:101A700041C00817A1F38091320281FD0E942B1012
:101A80000E94F10CC82E00E099249394802F0E94AC
:101A90002510182FF50191915F01891729F1D82E92
:101AA000D926F12CEE24E3948D2D8E21A9F0CC20A3
:101AB00099F0F9820A830E94581B9C838B839D8234
:101AC00091E0812F8E2109F490E049815A816B8148
:101AD0007C818D810E94EF02F394EE0CF6E0FF1200
:101AE000E3CFF501319710830F5F083079F60E943C
:101AF000CA0CA3CF0813BFCF9ECF1F93CF93DF9302
:101B00000E94A60EEC018115924508F05FC0C11538
:101B100080E5D80708F0DDC0C03ED10538F5CD3CE2
:101B2000D10508F0AEC0C83AD10580F4C53AD10558
:101B300008F0A4C0C130D10509F443C0CE01049718
:101B4000813A9105F0F1D0E0C0E03BC0CE01885A67
:101B500091094B97C0F7C85AD0E0CC0FDD1FCC5984
:101B6000DE4F0990D881C02DD4642BC0C11590E4FC
:101B7000D907F0F4C11520E2D20708F0C4C0C83E6E
:101B8000D105F8F0CE019A9581159F41E0F68D2F91
:101B90000E94480F182FCE0199270E94A60EC12F30
:101BA000D0E0DC2FCC27CC27DF71C82BD92B09C084
:101BB000CE0199270E94A60ECC27DF70C82BD92B07
:101BC000D06ACE01DF91CF911F910895C03882E590
:101BD000D807B8F5C03692E5D90708F05BC0C03425
:101BE00022E5D207C8F4C03282E5D80708F04BC01E
:101BF0002C2F2695269590E2299F900111248C2F59
:101C00008370C1E0D0E002C0CC0FDD1F8A95E2F7FF
:101C1000C22BD32BDD68D5CF2C2F26952695277088
:101C200080E2289F900111248C2F8370C1E0D0E0C6
:101C300002C0CC0FDD1F8A95E2F7C22BD32BDC68E4
:101C4000C0CFC03C92E5D90760F48C2F8F71C03AA9
:101C5000D245A8F5C82FD0E0DC2FCC27C46FD06ABE
:101C6000B0CFCE01805C9245809708F06CCFDC2F1E
:101C7000CC27CC27DF71C06FD06AA3CFA497D064E4
:101C8000A0CFD0659ECFCF71D0E0DC2FCC27C16F25
:101C9000D06A97CF2C2F26952695277080E2289F13
:101CA000900111248C2F8370C1E0D0E002C0CC0FD2
:101CB000DD1F8A95E2F7C22BD32BDA6882CF0E9410
:101CC000480FC82FD0E0DC2FCC27CC27DF71D062A3
:101CD00078CF8C2F8F710E94480F55E0D695C7950D
:101CE0005A95E1F7CF70D0E0DC2FCC27282F30E0D9
:101CF00084FF05C044E0220F331F4A95E1F7C22B51
:101D0000D32BD0695ECF8D2F8F710E94480F182F73
:101D1000CE0199270E94A60EC12FD0E0DC2FCC2740
:101D2000CC27DF71C82BD92BD2CF462F672F783025
:101D300028F4463018F40E94C401089580E090E031
:101D400008950E94950E0E947D0D0895803E910594
:101D5000C1F1C8F48133910509F47DC048F489329A
:101D6000910509F46DC08A32910509F47BC008958C
:101D700089339105D1F082389105B9F08533910509
:101D800009F459C00895843E9105C1F138F4823EAA
:101D9000910521F1833E910531F10895863E91052B
:101DA000C1F1873E9105E1F10895209181022370F0
:101DB00009F065C02091820223FF14C089E290E0FF
:101DC00008952091810220FD43C03091820230FFAE
:101DD00009C024FF4EC090E080E008952091810268
:101DE00022FDF7CF08952091810222FD45C0309158
:101DF000820230FD44C024FFF5CFEDCF2091820256
:101E000021FFF0CF8091810284FDE5CF87EE90E045
:101E100008952091810223FFE5CF24FDDCCFF6CF8A
:101E20002091810223FD2EC03091820231FFE3CF49
:101E300084EE90E008952091810225FFD3CFBECF9C
:101E40002091810225FD21C02091820223FFCACF6B
:101E500089E390E0C7CF2091810226FFC3CF8AE2B9
:101E600090E008952091810226FFBCCF81E390E0AD
:101E7000089583EE90E0089582EE90E0089580EE5C
:101E800090E0089586EE90E0089585E390E008954F
:101E90009091810292FF10C041E0282F24712430DC
:101EA00009F040E031E0282F2871283009F030E0B7
:101EB000431711F02CE0822793FF10C041E0282F38
:101EC0002471243109F040E031E0282F28712831B5
:101ED00009F030E0431711F02CE0822730918202A4
:101EE00030FF10C051E0282F2171213009F050E05F
:101EF00041E0282F2871283009F040E0541711F0F4
:101F000029E0822731FF10C041E0282F21712131C3
:101F100009F040E031E0282F2871283109F030E045
:101F2000431711F029E0822794FD877E08951092CF
:101F30007D0210927E0210927F021092800208951C
:101F4000CF92DF92EF92FF92CF93DF9300D000D039
:101F5000CDB7DEB76B017C010E94E51181110EC087
:101F60000E94641BC61AD70AE80AF90AC0927D02C9
:101F7000D0927E02E0927F02F09280020F900F904A
:101F80000F900F90DF91CF91FF90EF90DF90CF9067
:101F90000895A4E0B0E0EFECFFE00C9467240E9409
:101FA000E511882371F00E94641B69837A838B8317
:101FB0009C8369817A818B819C812496E2E00C94D8
:101FC00083240E94641B69837A838B839C83809122
:101FD0007D0290917E02A0917F02B09180022981C2
:101FE0003A814B815C81280F391F4A1F5B1F29836F
:101FF0003A834B835C83DDCF80E0089508950E948F
:10200000FD0B811102C00E949D0C0E94080C809360
:1020100032020E94120C90938202809381020E94ED
:10202000FE0F0E940D0C90E00E94E8068091C60110
:102030009091C7010E940907089508950E941D10FC
:10204000089508950E9421100895E82FF0E0E457C4
:10205000FD4F80810895089580EA8A95F1F70895EB
:1020600000C008950E942C10089508950E94351014
:102070000895EF92FF921F93CF93DF9300D000D08B
:10208000CDB7DEB70E94E511182F60919402882326
:1020900009F447C01A8219821C821B82862F90E0A5
:1020A0009E012F5F3F4F7901B90184579D4F0E94D8
:1020B0000B128823E9F08091830290E044E050E025
:1020C000B70184579D4F0E94A22421E02093330240
:1020D000892BC9F410E00E942210812F0F900F90DD
:1020E0000F900F90DF91CF911F91FF90EF90089587
:1020F00080913302882371F384E0F70111928A956D
:10210000E9F710923302E0918302F0E0E457FD4FCB
:1021100089819A81AB81BC8180839183A283B383BF
:10212000DACF70E064577D4F8091830290E084574E
:102130009D4F0E9496120E943610CFCFF894E82F40
:10214000E295EF70F0E041A18F7021E030E0B9013D
:1021500002C0660F771F8A95E2F7CB01962F909504
:10216000942391A392A1892B82A378940895CF936D
:10217000DF9387E90E949E1086EC0E949E1084E304
:102180000E949E1085E30E949E10CAE9D1E08991C9
:102190008F3F11F00E949E1081E0C03AD807B9F736
:1021A000DF91CF910895B0E0A0E0E9EDF0E10C946B
:1021B0006124EC01D62E062F10E0C80180569E4FF8
:1021C0007C01FC0120812F3F09F444C0F894E22FE8
:1021D000E295EF70F0E031A12F7081E090E001C056
:1021E000880F2A95EAF7932F982B91A392A18095B7
:1021F000892382A378940E943010EAE9F1E031E06B
:10220000C12C21912F3F59F1A22FA295AF70B0E0C0
:1022100090968C9190E02F7002C0959587952A95A5
:10222000E2F780FD1CC0832FC82A330F81E0E03A1B
:10223000F80739F7F70180818F3F11F00E949E1057
:1022400061E0C11001C060E08D2D0E943210C00F0E
:10225000D11FC882CDB7DEB7E8E00C947D2480E0C2
:10226000E3CF809102018091020194E0811190E01E
:102270009093940284E0891B809383020E94B7109C
:1022800088E0ECE8F2E0DF01982F1D929A95E9F7DB
:10229000E4E8F2E0DF011D928A95E9F784E00E940C
:1022A00097110E941E100895A8E0B0E0EAE5F1E160
:1022B0000C9466241A821982FE01339686E0DF01AF
:1022C0001D928A95E9F710E0612FCE0101960E94D8
:1022D000D3101F5F1430C1F748E050E0BE016F5FBC
:1022E0007F4F84E892E00E94A224AC0121E0892B78
:1022F00009F420E0452B49F088E0FE013196A4E87E
:10230000B2E001900D928A95E1F76091940270E03D
:1023100064577D4F44E084E892E00E949811182FA2
:102320000E943910812B2896E3E00C9482240895B2
:10233000B0E0A0E0EEE9F1E10C946124D82EE92EA2
:10234000F62ED72F042FC22F222379F081E080931D
:1023500036020E94581B909335028093340280E02D
:10236000CDB7DEB7E8E00C947D24C0903602CC20D7
:10237000B1F380913402909135020E94811B059740
:1023800070F310E0A8016D2D7E2D8F2D9D2F0E94E2
:10239000A224892B41F0A8016D2D7E2D8F2D9D2F1C
:1023A0000E94AF24CC2D109236028C2FD9CFCF9320
:1023B0000E943024C82F811102C00E942B248C2F30
:1023C000CF91089580913A0208958091390208953D
:1023D0000E94E51108950E94D711809339020E944E
:1023E000E81180933A020E94E211809302010E9458
:1023F000E51181110E94431208950E94E511811197
:1024000002C00E944612089581E090913B029A30EA
:1024100008F080E008950F931F93CF93DF93EC01B2
:10242000162F072F80913B028A30C0F4612F702F46
:10243000CE010E949312C82F811122C080913B02CD
:102440008F3FB9F40E94581B909338028093370253
:102450008C2FDF91CF911F910F91089580913702BA
:10246000909138020E94811B843F9140F8F6C0E0B1
:10247000EFCF8F5F80933B028A3020F7C1E0E8CF37
:1024800010923B02E5CF0E94481C08950E944B1C0D
:102490000895B0E0A0E0EFE4F2E10C946124FA01C9
:1024A00069017801C82F880FDD0B3097B1F0DE018C
:1024B00093E0AA0FBB1F9A95E1F7AD5FBE4F11964F
:1024C0008D919C911297845C9D4F4C9150E0E41744
:1024D000F50708F4AF010E94AF24CE010E94351D1C
:1024E000182F8823D1F0E114F104B9F083E0CC0F68
:1024F000DD1F8A95E1F7FE01ED5FFE4F438150E05D
:10250000E416F50608F4A701CD5FDE4F6C817D81EE
:10251000645C7D4FC6010E94AF24812FCDB7DEB72A
:10252000E8E00C947D240E949C1308950E94B5134A
:102530000895A8E0B0E0EFE9F2E10C946524809101
:10254000510290915202A0915302B0915402BC01E9
:10255000CD010E94901B11E0643671058105910543
:1025600020F10E94C90FDC01CB010296A11DB11D13
:1025700089839A83AB83BC8310E000E030E020E0E5
:1025800044E050E0BE016F5F7F4F82E00E9449123D
:10259000182F882351F00E94641B6093510270939E
:1025A00052028093530290935402812F2896E4E0C4
:1025B0000C948124B0E0A0E0E0EEF2E10C945F2402
:1025C000F82EE92ED62EC72E8A010E940412AA24C4
:1025D000A394B12C882319F08AE0A82EB12CC1E075
:1025E000D0E06D2D7C2D8F2D9E2DF8010995811148
:1025F00004C02196AC16BD062CF4CDB7DEB7EAE0D8
:102600000C947B24CC9F9001CD9F300D300D112474
:1026100090E080E045E34A95F1F7000001968217CB
:102620009307C1F7DECFA9E0B0E0E9E1F3E10C9454
:102630005F246B01E090A401F090A50101E010E09F
:102640009E012B5F3F4F50E040E070E060E080E093
:102650000E944912182F882309F451C057018FEFA7
:10266000A81AB80A80914D0290914E02A0914F0293
:10267000B0915002BC01CD010E94901B6E837F83FC
:1026800088879987643671058105910580F104E09A
:1026900010E09E012F5F3F4F50E040E070E060E0AF
:1026A00081E00E944912182F64E070E0C5010E9489
:1026B0003F1591E02D81281390E0192359F10E94D4
:1026C000641B60934D0270934E0280934F0290936F
:1026D000500289819A81AB81BC8180934902909399
:1026E0004A02A0934B02B0934C0211E013C064E085
:1026F00070E0C5010E943F159D818913C8CFF70185
:1027000081819281A381B48189839A83AB83BC83C5
:102710001111DFCF8091490290914A02A0914B02A2
:10272000B0914C02F60180839183A283B383812F01
:102730002996EAE00C947B240F931F93CF93DF93A9
:10274000D82FC92F8B0143E153E10E94DA1288236D
:1027500039F049E952E1B8018D2F9C2F0E94DA121D
:10276000DF91CF911F910F9108950F931F93CF93F6
:10277000DF93FB01C091A401D091A501CE01019688
:1027800024E0DC0101900D922A95E1F764E070E00D
:102790000E943F1588836D817E818F81988500918D
:1027A000450210914602209147023091480260177D
:1027B00071078207930751F06093450270934602B8
:1027C00080934702909348020E94A00FDF91CF911F
:1027D0001F910F9108950E94081F0E94000D0E94F2
:1027E000151F08950E941A1F0E94110D0E94341F88
:1027F00008950E94F11A0E94EE1E0E94E80C0E94A9
:10280000EB130E94F2130E94F60CFBCF9093A701EA
:102810008093A60108958B3258F48530C0F0EBEF19
:10282000E80FE632A0F4F0E0E85EFA4D0C94512493
:10283000833450F48A3308F054C0853309F44AC015
:10284000883329F481E00895833409F443C080E09B
:1028500008950E949D0CF6CF80913202807F809374
:10286000320281E08093580208950E944402EACF28
:1028700090913202892F8E7F90FF81608093320287
:1028800080FDE0CF817F80933202DCCF90913202D5
:10289000892F8D7F91FF82608093320281FFD2CF9A
:1028A000809132028160EFCF90913202892F8B7F2D
:1028B00092FF84608093320282FDF2CFC3CF909169
:1028C0003202892F877F93FF88608093320283FDD5
:1028D000E7CFB8CF81E090E00E94E8060E9498061A
:1028E000B1CF895321E030E0A90102C0440F551F48
:1028F0008A95E2F7CA01F0CF8D51F4CF80E00895B8
:102900000E947E140895CF93C82F80915802813081
:10291000A1F08230A1F18111ADC00E94020B823280
:1029200009F0AAC08C2F0E947E1481111BC08C2F2D
:102930000E940B148170CF9108950E94020B823285
:1029400089F38C2F0E94801481110AC0C431A1F038
:1029500060F4CB3029F0C03169F782E080935802EF
:1029600081E0E8CF81E090E0E5CFC93229F081E055
:10297000C83301F380E0DECF10925802FBCFCF3492
:1029800009F470C0C0F4C83248F4CE3188F5C730BD
:1029900009F455C0C43121F081E0CDCFC932E1F74F
:1029A000809157028823C1F3109257021092560269
:1029B00010925502F1CFC13509F456C081E0C235FD
:1029C00019F086EFC03541F7E0915502F0915602BB
:1029D000309711F32081082E000C990B820F911D66
:1029E0008F3F910509F00CF441C08FEF8083D4CF65
:1029F000CD51C0935702C430E1F068F4C230B1F059
:102A000080E291E0C33069F082E291E0C13049F0A8
:102A100010925702C1CFC53079F08BE191E0C630FA
:102A2000B9F79093560280935502B6CF81E291E0B8
:102A3000F8CF8FE191E0F5CF8CE191E0F2CF81E02A
:102A40008093220184E1809321018AE08093200118
:102A50008EE180931F0188E080931C0188E28093BF
:102A60001B019ACF8AE0B0CF8FEFAECF97FFBECFDA
:102A7000108292CF1092580280E05DCF0895FC0141
:102A8000680F791F8FEF91E36E177F0709F40895A0
:102A90002191822728E030E087FF06C0880F892730
:102AA00021503109C9F7F0CF880FFACFCF93DF93C8
:102AB000EB0186319C4711F50E94020B9D81992301
:102AC00099F08A7A91E009F490E09093590281118B
:102AD00009C089E20E946B1A0E94930B80E0DF918B
:102AE000CF91089585E3F6CF80915902811104C0FA
:102AF00089E20E94731AF0CF85E3FBCF81E0EFCF2C
:102B0000CF93DF93EC01FB018581882309F4D2C0C8
:102B10009E0130572332310508F0B2C00E94120CDA
:102B20009093820280938102FE01E150F047E232ED
:102B3000F10520F4E25CFA4D0C945124809181025D
:102B400081608093810293C080918202886080932B
:102B500082028DC0809181028260F3CF80918102D8
:102B60008460EFCF809181028860EBCF80918202F8
:102B70008160EDCF809182028260E9CF80918102F5
:102B80008061DFCF809181028062DBCF8091810202
:102B90008064D7CF0E949806809181028068D1CF4F
:102BA000809181028C60CDCF809182028360CFCFF3
:102BB000809181028E7FC5CF80918202877FC7CFAF
:102BC000809181028D7FBDCF809181028B7FB9CFB3
:102BD00080918102877FB5CF809182028E7FB7CFAF
:102BE000809182028D7FB3CF809181028F7EA9CFA9
:102BF000809181028F7DA5CF809181028F7BA1CFB3
:102C00000E949806809181028F779BCF80918102EC
:102C1000837F97CF809182028C7F99CF80918102B0
:102C200082FB992790F921E0922790FB82F990FB93
:102C300083F987CF80918202982F909591708E7F33
:102C4000892B90FB81F983CF90918102892F8F7B13
:102C500096FF806476CF0E94980690918102892F1A
:102C600097FB87F980586DCF81E00E94A00C80917E
:102C70008102909182020E94170C0E94980680E0C7
:102C8000DF91CF91089580E0F0CF90918102892F5C
:102C90008F7E94FF806155CF90918102892F8E7F26
:102CA00090FF81604ECF90918202892F877F93FFA2
:102CB00088604DCF81E0E4CF282F35EB2303C0019E
:102CC000112497FF04C080589109892F08958058D6
:102CD0009F4FFBCF8091600280FF0DC0609120016B
:102CE00070E0660F771F6038710570F5611571052A
:102CF00069F1862F089581FF07C06091200184E06B
:102D0000689FB0011124EFCF6091200182FD0AC0BD
:102D100080915F028823A9F020911F01609120011A
:102D2000821710F088E0ECCF869FC001112433E0B9
:102D3000880F991F3A95E1F7622F70E00E943D24B9
:102D4000D2CF68E070E0D5CF8FE7089581E0089595
:102D50008091600280FF0CC060911C0170E075954D
:102D60006795759567956115710549F1862F0895E9
:102D700081FF06C060911C0170E075956795F3CFE7
:102D800060911C0182FD0BC090915E029923A1F01D
:102D900060911B0180911C01961738F0682F70E03C
:102DA0006038710500F38FE70895899FC0011124F1
:102DB00070E00E943D24F4CF61E070E0D7CF81E065
:102DC00008959091630220916402922B20916602F3
:102DD000922B20916502922B31F098E090935F0244
:102DE00091E090935E028D3C31F40E946A168195C9
:102DF0008093640208958E3C19F40E946A16F8CFFD
:102E00008F3C31F40E946A16819580936302089585
:102E1000803D19F40E946A16F8CF893D29F40E947A
:102E2000A8168093650208958A3D21F40E94A81691
:102E30008195F7CF8B3D31F40E94A8168195809340
:102E4000660208958C3D19F40E94A816F8CF9FE2FF
:102E5000980F983070F4815D990B21E030E001C04B
:102E6000220F8A95EAF780916202822B8093620298
:102E700008958D3D31F480916002816080936002FD
:102E800008958E3D21F4809160028260F7CF8F3DDE
:102E9000B9F7809160028460F1CF409163028D3C6C
:102EA00059F48091640287FF0DC0109264024111B1
:102EB0000BC010925F0208C08E3C81F480916402C6
:102EC00018169CF3442381F080916502909166026C
:102ED000892B09F05AC010925E0208958F3C49F484
:102EE00047FFF0CF10926302809164028111ECCF12
:102EF000E0CF803D19F41416ACF3E4CF9091650255
:102F0000893D29F41916F4F610926502DBCF8A3D4B
:102F100019F497FFD7CFF8CF909166028B3D29F433
:102F200097FFD0CF10926602CDCF8C3D19F41916C1
:102F3000CCF3C8CF9FE2980F983090F4815D990B45
:102F400021E030E0B90102C0660F771F8A95E2F7F1
:102F5000CB01809590916202892380936202B2CF67
:102F60008D3D31F4809160028E7F80936002AACF04
:102F70008E3D21F4809160028D7FF7CF8F3D09F067
:102F8000A1CF809160028B7FF0CF08950E94581BE3
:102F90002091630230916402232B21F080935C0224
:102FA00090935D022091650230916602232B21F0FF
:102FB00080935A0290935B0281E692E00E94BE19D0
:102FC000089586E0E1E6F2E0DF011D928A95E9F7D7
:102FD00010925F0210925E02109260020895FC014E
:102FE000828181110DC0838181110AC08481811188
:102FF00007C081E09581911101C080E08170089542
:1030000081E0FCCFA6E0B0E0E8E0F8E10C946624B3
:1030100086E0E1E6F2E0DE01119601900D928A95DC
:10302000E1F710926302109264021092650210920E
:1030300066028B819C81892B89F080915C02909142
:103040005D020E94811B9C0180915F028823C9F16F
:10305000909121019217130608F440C08D819E8142
:10306000892B91F080915A0290915B020E94811B02
:103070009C0180915E02882309F46AC090911D0131
:103080009217130608F472C0BE016F5F7F4F81E68E
:1030900092E00E94861A811105C081E692E00E94AA
:1030A000EF1781110E94C61786E0FE013196A1E656
:1030B000B2E001900D928A95E1F72696E3E00C9438
:1030C0008224409122019AE0499FA00111244217D5
:1030D000530720F68F5F80935F0202C08F3FD1F7C6
:1030E0001B81112359F00E946A169FEF11160CF4F0
:1030F00091E0899F802D1124809363021C8111230C
:1031000059F00E946A169FEF11160CF491E0899F06
:10311000802D11248093640280916302882309F436
:103120009DCF10916402112309F498CF0E945C1680
:10313000882351F080936302812F0E945C168823BC
:1031400029F0809364028ACF81E0F4CF81E0F9CF47
:1031500040911E019AE0499FA00111244217530794
:1031600008F092CF8F5F80935E0202C08F3FD1F74D
:103170001D81112359F00E94A8169FEF11160CF41F
:1031800091E0899F802D1124809365021E81112377
:1031900059F00E94A8169FEF11160CF491E0899F38
:1031A000802D11248093660280916502882309F4A2
:1031B0006BCF10916602112309F466CF0E945C1652
:1031C000882351F080936502812F0E945C1688232A
:1031D00029F08093660258CF81E0F4CF81E0F9CFE7
:1031E0000F931F93CF93DF93C42FD22FFC018581C0
:1031F0008823C9F0409369020E94581B909368028B
:103200008093670280E28C0F883040F4C77081E0C1
:1032100001C0880FCA95EAF70E943F04DF91CF9161
:103220001F910F91089510916902141332C080917B
:103230006702909168020E94811B883C910548F5C5
:10324000C0E2CD0F1D17B9F080E2810F883040F445
:10325000177081E001C0880F1A95EAF70E944604B2
:10326000C83048F481E09D2F977001C0880F9A956F
:10327000EAF70E943F04802F0E943604C83070F69F
:10328000D77081E001C0880FDA95EAF70E94460402
:10329000C5CF80E28C0F883008F6C77081E001C08E
:1032A000880FCA95EAF7F2CF0F93FC01CB01E851E2
:1032B000FC47E730F10590F5E05AFA4D0C945124A3
:1032C00006E221EE41EE6AE17CE70E94F01880E020
:1032D0000F91089507E225EE45EE6BE17CE7F5CF0F
:1032E00006E221EE40EE68E17CE7EFCF07E225EE53
:1032F00044EE69E17CE7E9CF06E221EE42EE6CE1C3
:103300007CE7E3CF07E225EE46EE6DE17CE7DDCF1B
:1033100008E221E045EE6EE17CE7D7CFFB01858135
:10332000882319F010926902D3CF81E0D1CF909316
:10333000700280936F0208950E94E511811103C00D
:1033400080916A020895E0916F02F09170023097C7
:1033500029F00190F081E02D0995089580E008950D
:103360000E949C190895E0916F02F09170023097CD
:1033700021F00280F381E02D09950895DC01E091B0
:103380006F02F0917002309739F082E08C930680E2
:10339000F781E02DCD0109950895A3E0B0E0E3EDBC
:1033A000F9E10C9467249C0180916D0290916E026A
:1033B00082179307A1F030936E0220936D02E09183
:1033C0006F02F0917002309751F083E089833B8364
:1033D0002A830084F185E02DCE010196099523967C
:1033E000E2E00C948324A3E0B0E0E9EFF9E10C946F
:1033F00067249C0180916B0290916C028217930765
:10340000A1F030936C0220936B02E0916F02F09177
:103410007002309751F084E089833B832A830084D3
:10342000F185E02DCE01019609952396E2E00C94FA
:10343000832440910001509101019A012E5F3F4F7A
:10344000485F5F4F80E02417350709F40895F901BC
:1034500091919F019923B9F38F5FF5CF882371F084
:103460002091000130910101F9013296285F3F4F10
:103470009191981729F0E217F307D1F780E00895AA
:1034800081E008959C01FC0132968FEF90E041911C
:10349000461751F08F3F19F4411101C0892F9F5FEA
:1034A0009630A9F78F3F09F40895280F311D87FD45
:1034B0003A95F901628308959C01FC013296285FD8
:1034C0003F4F8191861303C0DF0111971C92E217D1
:1034D000F307B9F70895682F8091000190910101D9
:1034E0000E94421A0895682F809100019091010175
:1034F0000E945C1A0895E0910001F091010132965A
:1035000086E0DF011D928A95E9F70895DC01FB0151
:1035100011969C9111978181981322C012968C91DB
:103520001297882319F0928189131AC013968C91EF
:103530001397882319F09381891312C015968C91E3
:103540001597882319F0958189130AC014969C91C8
:10355000992321F081E02481291303C080E001C078
:1035600081E08170089508950E94B31A0895811131
:1035700006C081E0809371020E94B41A089582E02F
:10358000F9CF83E0809371020E94B41A08950E94DB
:10359000B71A089581E0809371020E94B41A0895C9
:1035A0000E94CA1A0895089508950E94D41A089591
:1035B000089508950E94D31A0895CF930E94D81AAF
:1035C0000E9454110E94D91AC0E08C2F0E9425102D
:1035D000811105C0CF5FC830C1F7CF91089581E058
:1035E000FCCF85B7806885BF85B7806885BF0895A3
:1035F0001F921FB61F9211248F939F93AF93BF9377
:1036000080917202811113C080919502909196026F
:10361000A0919702B09198024196A11DB11D80938F
:10362000950290939602A0939702B0939802BF914F
:10363000AF919F918F911F901FBE1F901895809101
:103640009D02843031F10E94A6021092720288E13C
:1036500090E020E40FB6F894A895809360000FBE28
:103660002093600083B7817F846083BF83B78160CC
:1036700083BF7894889583B78E7F83BF0FB6F89405
:10368000A89580916000886180936000109260002E
:103690000FBE08950E9498060E94AB02089582E032
:1036A00084BD93E095BD9AEF97BD80936E00089519
:1036B0002FB7F8948091950290919602A09197026D
:1036C000B09198022FBF0895A4E0B0E0EAE6FBE1D4
:1036D0000C9467248FB7F89420919502309196024C
:1036E000409197025091980229833A834B835C83DF
:1036F0008FBF69817A818B819C812496E2E00C9452
:1037000083249C014FB7F894809195029091960282
:10371000A0919702B09198024FBF821B930B08951E
:10372000A4E0B0E0E6E9FBE10C946524462F572FB6
:10373000BC012FB7F8948091950290919602A091C8
:103740009702B09198022FBF8C019D01041B150BAD
:10375000260B370BC901B8012496E4E00C948124B0
:1037600078941F921FB61F9211248F939F93AF934B
:10377000BF938091950290919602A0919702B0918B
:1037800098020196A11DB11D809395029093960217
:10379000A0939702B0939802BF91AF919F918F91A0
:1037A0001F901FBE1F90189587E797E79093010819
:1037B0008093000888E19AE00FB6F894A89580936A
:1037C00060000FBE90936000FFCF88E19AE00FB6D3
:1037D000F894A895809360000FBE90936000FFCF8F
:1037E0008EE1489B02C08150E1F7489BFECF0895CF
:1037F000589880E28A95F1F7589A0895FC013BE0C9
:103800003A95F1F798E020E080E031E040E14A9518
:10381000F1F7880F489B02C08160232742E04A9558
:10382000F1F7000040E14A95F1F7915079F790E106
:103830009A95F1F799B132E03A95F1F7000040E13D
:103840004A95F1F7917092272081920F9083089505
:10385000A1E0B0E0EEE2FCE10C94632419828C015B
:103860007C01E60EF11C0E151F0541F481E09981E3
:10387000911180E02196E6E00C947F240E94F01BD9
:10388000CE0101960E94FE1BF80181938F01EBCFC0
:10389000509A589A08955098589AE89AE9E6F0E0B4
:1038A00080818C7F808308956150770B91E001C007
:1038B000990F6A95EAF720E031E0911108C02223C0
:1038C00091F0589A80E28A95F1F758980895492F17
:1038D000482339F0589A232740E24A95F1F7969504
:1038E000ECCF5898F9CF5898EDCFFF920F931F93D4
:1038F000CF93DF93EC018C01060F111DC017D10788
:1039000029F4CDB7DEB7E5E00C948024F9900E944D
:10391000F81B68E08F2D0E94541CF0CF1F920F926D
:103920000FB60F9211240F931F932F933F934F9332
:103930005F936F937F938F939F93AF93BF93EF9317
:10394000FF93CF93DF930F92CDB7DEB719820E941A
:10395000F01BCE0101960E94FE1B282F082F069512
:1039600006950695982F92959570802F8570980FE3
:10397000892F837096959695890F822787709981F4
:10398000892B09F05CC0043008F059C080E18A95A9
:10399000F1F7589A509A82E08A95F1F700C058984A
:1039A00088E0089F80011124D801AD5FBE4F1696B4
:1039B000ED91FC9117973097A9F06091A401709157
:1039C000A50114962D913C911597260F371F11963E
:1039D0008D919C911297680F791F13964C911397B4
:1039E0008C910995F801ED5FFE4F6381662351F0DC
:1039F0002091A4013091A50184819581820F931FAC
:103A00000E94751C0E94F81B80E18A95F1F7589876
:103A10005098589A80E18A95F1F7F801ED5FFE4FD2
:103A20006081662351F02091A4013091A50181812C
:103A30009281820F931F0E94281C0E94F01B0F90FE
:103A4000DF91CF91FF91EF91BF91AF919F918F91B6
:103A50007F916F915F914F913F912F911F910F91A6
:103A60000F900FBE0F901F9018950F931F93CF9339
:103A7000DF93EC0104970CF04CC0F894509A5898DE
:103A800085E08A95F1F700008C2F869585709C2F34
:103A90009570890F982F93708695869523E0CC0FAB
:103AA000DD1F2A95E1F7890F8E01082B0E94F81B74
:103AB00000C068E0802F0E94541C80E18A95F1F7D5
:103AC0005098589A489B1EC087E090E048991CC0C7
:103AD000FE01ED5FFE4F63816623F9F02091A401A2
:103AE0003091A50184819581820F931F0E94281C2B
:103AF000811113C0509A589A7894DF91CF911F91F9
:103B00000F91089500C0DECF019729F4509A589A7A
:103B1000789480E0F2CF00C0D9CF0E94F01B80E201
:103B20008A95F1F75898509A80E18A95F1F7CD5F20
:103B3000DE4F6881662351F02091A4013091A501E8
:103B400089819A81820F931F0E94751C0E94F81B25
:103B5000789481E0D2CF80917B0208950895282F38
:103B6000CB01BA0130919D023430E1F42F702093E3
:103B7000E9002FEF3091E800215035FD06C035ED0A
:103B80003A95F1F700002111F5CF2091E80025FFCB
:103B900009C050E040E00E94AD1F8091E8008E77A0
:103BA0008093E8000895BC0143E050E082E00E9469
:103BB000AF1D0895BC0146E050E082E00E94AF1DB9
:103BC0000895CF93DF93D82FC92F48E050E0682F96
:103BD000792F81E00E94AF1D88E0ED2FFC2FA3E735
:103BE000B2E001900D928A95E1F7DF91CF910895AF
:103BF00080919C02811109C00E9435210E9492216E
:103C00008091E20084608093E200089510929C020B
:103C100008950E94CA1A08956091990281E0611185
:103C200001C080E00E94C11A089590919D0281E038
:103C3000943009F080E0609199020E94C71A0895BB
:103C400042E061EC81E00E94B12042E261EC82E05E
:103C50000E94B12090919D0281E0943009F080E0B3
:103C6000609199020E94B71A089580919F0289304D
:103C700089F148F4823009F4A0C0833009F45AC0B5
:103C8000813041F008958A3009F487C08B3009F4FF
:103C90006CC0089580919E02813A09F04AC08091DB
:103CA000E800877F8093E8008091A2029091A302B0
:103CB000892B61F468E083E792E070E00E94FC1FCA
:103CC0008091E8008B778093E800089560E090E0B1
:103CD00080E0F3CF80919E02813259F58091A2025B
:103CE0009091A302029728F58091E800877F809346
:103CF000E8008091E80082FF18C09091F300809165
:103D0000F200029731F48091F100813011F0863099
:103D100021F48091F10080937B028091E8008B7701
:103D20008093E8000E94E52004C080919D028111EB
:103D3000E0CF089580919E02813AD9F78091A20246
:103D40009091A302892BA9F78091E800877F809347
:103D5000E8008091E80080FFFCCF80912D018093E6
:103D6000F1008091E8008E77DBCF80919E02813256
:103D700001F78091A2029091A302892BD1F6809144
:103D8000E800877F8093E8000E94E5208091A002F0
:103D900080932D010E949806089580919E028132A1
:103DA00041F68091E800877F8093E8000E94E5203B
:103DB0008091A10280937C02089580919E02813AB5
:103DC00009F0B7CF8091E800877F8093E800809169
:103DD000E80080FFFCCF80917C02C1CF84B7877F51
:103DE00084BF0FB6F894A895809160008861809395
:103DF0006000109260000FBE80E890E00FB6F8946B
:103E000080936100909361000FBE0E94D01A0895C4
:103E10000E9435210E949221E2EEF0E080818460D0
:103E2000808378940E941024089583E291E00E9498
:103E30009719089580919D02853031F480919D02FB
:103E4000853019F00E944A1B08950E941F1B809123
:103E50009B02882399F30E94DD1A882379F30E943C
:103E6000971F0E949806EACF08959A014091A402F4
:103E70005091A5020E943D1F0895AC01CB01D901CC
:103E8000252F332723303105D1F070F4213031054F
:103E900009F43EC02230310569F48BE390E026E05E
:103EA00032E02D933C93089521323105E9F022321E
:103EB000310521F190E080E030E020E0F2CFCA014E
:103EC0009927413059F08230910559F0E2E0F2E053
:103ED000892B81F7849190E09F01E3CFEAEEF1E036
:103EE000F9CFECECF1E0F6CF892BB9F06130710538
:103EF00009F789E090E021E332E0D3CF892B91F0FC
:103F000061307105B9F68BE790E023E532E0C9CF67
:103F100082E190E021E432E0C4CF89E090E028E142
:103F200032E0BFCF84E490E02EEC32E0BACF80E103
:103F300089BD82E189BD09B400FEFDCF8091D80022
:103F40008F7D8093D8008091E00082608093E000B4
:103F50008091E00081FDFCCF0895AF92BF92CF9297
:103F6000DF92FF920F931F93CF93DF936C01EB01CE
:103F70008A010E940421F82E811123C00115110528
:103F800039F0F80180819181C81BD90BC80ED91E68
:103F9000B12CA12C2097A9F08091E80085FD22C0CA
:103FA0008091E8008E778093E80001151105A1F05B
:103FB000F80180819181A80EB91EB182A08285E0AE
:103FC000F82E8F2DDF91CF911F910F91FF90DF90F1
:103FD000CF90BF90AF9008950E9404218823D1F222
:103FE000F82EEFCFF60181916F018093F1002197B8
:103FF000FFEFAF1ABF0ACECFFC01CB012091A40284
:104000003091A5022617370790F0009729F42091E8
:10401000E8002E772093E80040E0009751F441112A
:1040200008C08091E80082FF31C080E00895C90196
:10403000F3CF20919D022223A9F12530A9F12091EF
:10404000E80023FD2DC02091E80022FDEACF209159
:10405000E80020FFE2CF3091F3002091F2000097BA
:1040600019F02830310558F041E02830310509F0C9
:1040700040E02091E8002E772093E800CECF4191D8
:104080004093F10001972F5F3F4FE9CF80919D0250
:10409000882341F0853041F08091E80083FFC1CF53
:1040A00081E0089582E0089583E00895FC01CB014A
:1040B0002091A4023091A5022617370790F00097AF
:1040C00029F42091E8002E772093E80040E0009743
:1040D00051F4411108C08091E80082FF32C080E0B5
:1040E0000895C901F3CF20919D022223B1F125301B
:1040F000B1F12091E80023FD2EC02091E80022FDBF
:10410000EACF2091E80020FFE2CF3091F300209128
:10411000F200009719F02830310558F041E02830BE
:10412000310509F040E02091E8002E772093E80067
:10413000CECF44914093F100319601972F5F3F4FCE
:10414000E8CF80919D02882341F0853041F0809135
:10415000E80083FFC0CF81E0089582E0089583E006
:104160000895982F973028F08F708093E90081E0B0
:1041700008959093E900242F762F50E0981731F09E
:104180007091EC002091ED005091F00021FD02C0F3
:104190009F5FE8CF3091EB003E7F3093EB00309192
:1041A000ED003D7F3093ED003091EB0031603093B6
:1041B000EB007093EC002093ED005093F000209101
:1041C000EE0027FDE5CF80E0089580919E0287FFF5
:1041D00013C08091E80082FF06C08091E8008B77D1
:1041E0008093E80004C080919D028111F2CF089570
:1041F00080919D028823D9F38091E80080FFF8CF59
:104200008091E8008E77ECCF2091E4003091E500BA
:1042100095E6A9012091EC00822F817020FF06C055
:104220008091E80080FF06C080E008952091E800BA
:1042300022FD1AC080919D02882389F0853089F083
:104240008091EB0085FD0FC02091E4003091E500E6
:1042500042175307F9F29150E1F684E0089582E0A5
:10426000089583E0089581E008950E94A4210E94AA
:10427000AC21E0EEF0E0808181608083E8EDF0E049
:1042800080818F77808319BCA7EDB0E08C918E7F01
:104290008C9380818F7E808310929C0208950F936F
:1042A0001F93CF93DF930E94A4210E94AC21C8EDFD
:1042B000D0E088818F77888388818068888388812F
:1042C0008F7D888319BC10929D02109299021092E2
:1042D0009B0210929A0200EE10E0F80180818B7F21
:1042E000808388818160888342E060E080E00E9472
:1042F000B120E1EEF0E080818E7F8083E2EEF0E09D
:10430000808181608083808188608083F8018081E2
:104310008E7F8083888180618883DF91CF911F9118
:104320000F910895E8EDF0E080818F7E8083E7EDC6
:10433000F0E080818160808384E082BF81E08093AF
:104340009C020E944F210895E8EDF0E080818E7F6D
:1043500080831092E20008951092DA001092E1003A
:1043600008951F920F920FB60F9211242F933F932F
:104370004F935F936F937F938F939F93AF93BF936D
:10438000EF93FF938091E10082FF0BC08091E200E8
:1043900082FF07C08091E1008B7F8093E1000E9443
:1043A0000F248091DA0080FF19C08091D80080FF2F
:1043B00015C08091DA008E7F8093DA008091D90059
:1043C00080FF94C080E189BD82E189BD09B400FE0F
:1043D000FDCF81E080939D020E94F81D8091E10055
:1043E00080FF19C08091E20080FF15C08091E2003B
:1043F0008E7F8093E2008091E20080618093E200F2
:104400008091D80080628093D80019BC85E08093A9
:104410009D020E940C1E8091E10084FF29C08091C2
:10442000E20084FF25C080E189BD82E189BD09B435
:1044300000FEFDCF8091D8008F7D8093D8008091C1
:10444000E1008F7E8093E1008091E2008F7E809377
:10445000E2008091E20081608093E2008091990205
:10446000882309F449C084E080939D020E94151EB0
:104470008091E10083FF29C08091E20083FF25C085
:104480008091E100877F8093E10082E080939D022C
:10449000109299028091E1008E7F8093E1008091DB
:1044A000E2008E7F8093E2008091E2008061809341
:1044B000E20042E060E080E00E94B1208091F000E4
:1044C00088608093F0000E94091EFF91EF91BF91D8
:1044D000AF919F918F917F916F915F914F913F919C
:1044E0002F910F900FBE0F901F90189519BC10922E
:1044F0009D020E94061E72CF8091E30087FD02C0DC
:1045000081E0B2CF83E0B0CF1F920F920FB60F922F
:1045100011242F933F934F935F936F937F938F93C8
:104520009F93AF93BF93CF93DF93EF93FF93D0917C
:10453000E900DF708091EC00C82FC17080FDC0E8F9
:104540001092E9008091F000877F8093F0007894CA
:104550000E94C8221092E9008091F0008860809348
:10456000F000CD2BCF70C093E900FF91EF91DF9168
:10457000CF91BF91AF919F918F917F916F915F91FB
:104580004F913F912F910F900FBE0F901F90189554
:10459000AAE2B0E0EEECF2E20C9466248EE992E03E
:1045A000FC0101962091F100208322E0863A9207D7
:1045B000B9F70E94351E8091E80083FF1EC18091EB
:1045C0009E0290919F029A3008F017C1E92FF0E007
:1045D000E959FA4D0C945124803899F0823809F049
:1045E0000CC18091A2028F70873008F006C18093C1
:1045F000E9008091EB0085FB882780F91092E900A3
:1046000006C080919A0290919B02911182609091D4
:10461000E800977F9093E8008093F1001092F100FA
:104620008091E8008E77E5C0882309F4D3C08230FA
:1046300009F0E3C08091A0028111D6C08091A2024E
:104640008F702FEF280F263008F0D7C08093E90035
:104650002091EB0020FFC8C0933031F48091EB0033
:1046600080628093EB00C0C09091EB0090619093CA
:10467000EB0021E030E001C0220F8A95EAF7209399
:10468000EA001092EA008091EB008860EACF811185
:10469000B4C01091A0021F778091E3008078812B35
:1046A0008093E3008091E800877F8093E8000E9478
:1046B000E5208091E80080FFFCCF8091E3008068D6
:1046C0008093E30082E0111183E080939D0295C006
:1046D0008058823008F091C08091A0029091A10290
:1046E0008C3D23E09207A1F583E08A838AE28983E7
:1046F0004FB7F894DE01139620E03EE051E2E32F3D
:10470000F0E050935700E49120FF03C0E295EF7072
:104710003F5FEF708E2F90E0EA30C0F0C7968D9328
:104720009D932F5F243159F74FBF8091E800877F19
:104730008093E8006AE270E0CE0101960E94FC1FBF
:104740008091E8008B778093E80057C0C096E7CF50
:104750006091A2027091A302AE014F5F5F4F0E9471
:10476000351FBC01892B09F448C08091E800877F80
:104770008093E80089819A810E945620E1CF803899
:10478000E1F58091E800877F8093E80080919902AD
:104790008093F10045CF811130C09091A0029230FA
:1047A00060F58091E800877F8093E80090939902FC
:1047B0000E94E52080919902882311F084E005C0D1
:1047C0008091E30087FDFACF81E080939D020E94F3
:1047D000201E13C08091A002813079F481E09330D3
:1047E00009F080E080939B021092E9008091E8003C
:1047F000877F8093E8000E94E5208091E80083FF96
:104800000AC08091E800877F8093E8008091EB00E8
:1048100080628093EB00AA96E3E00C9482240895D2
:10482000CF9380919D028823A1F0C091E900CF70C1
:104830009091EC00892F817090FD80E8C82B109238
:10484000E9008091E80083FD0E94C822CF70C093E8
:10485000E900CF9108950E94352110929D0208959C
:10486000E8EDF0E08081806180838AE18A95F1F74C
:1048700000C08091D9008170089597FB072E16F42F
:10488000009407D077FD09D00E948E2407FC05D044
:104890003EF4909581959F4F0895709561957F4F57
:1048A0000895EE0FFF1F0590F491E02D09942F92CB
:1048B0003F924F925F926F927F928F929F92AF92B0
:1048C000BF92CF92DF92EF92FF920F931F93CF93FD
:1048D000DF93CDB7DEB7CA1BDB0B0FB6F894DEBF94
:1048E0000FBECDBF09942A88398848885F846E84BA
:1048F0007D848C849B84AA84B984C884DF80EE8004
:10490000FD800C811B81AA81B981CE0FD11D0FB60C
:10491000F894DEBF0FBECDBFED010895AA1BBB1BEF
:1049200051E107C0AA1FBB1FA617B70710F0A61BAF
:10493000B70B881F991F5A95A9F780959095BC01D0
:10494000CD010895FB01DC0104C08D910190801917
:1049500021F441505040C8F7881B990B0895FB0182
:10496000DC0102C001900D9241505040D8F70895EB
:10497000F999FECF92BD81BDF89A992780B5089527
:10498000A8E1B0E042E050E00C94FC24DC01A40F6C
:10499000B51F4150504048F0CB01840F951F2E9118
:1049A0000E94D72441505040D0F70895262FF999FE
:1049B000FECF92BD81BDF89A019700B4021639F07E
:1049C0001FBA20BD0FB6F894FA9AF99A0FBE08954F
:1049D0000396272F0E94D7240E94D624252F0E94B9
:1049E000D724242F0C94D7240196272F0E94D72454
:1049F0000C94D624DC01CB01FC01F999FECF06C052
:104A0000F2BDE1BDF89A319600B40D92415050408C
:104A1000B8F70895F894FFCF8D048D04DF04DF0408
:104A200044056005BC04BC046505D805E705E70539
:104A300035142C1438142214271427142214271484
:104A40002714541427145F14271427142714271429
:104A50002714221427142714221427144614271469
:104A600027147C147C147C147C147C147C147C141B
:104A70007C147C146A14271435142914D8154C1688
:104A8000E015AA15AE15E415B215E815F415BE1516
:104A90004516C215F815C615FC152416CA150016BC
:104AA0002B16D01506160E16B615EC15BA15F01500
:104AB000D4150A161A1634164316A415DC15531607
:104AC0007019761960196A197C1982198819EC22F3
:104AD0001423FD231423FD2347236823FD23BF2331
:024AE000CB23E6
:104AE20016020100000001000000000000000401A5
:104AF2000000000405000000000000280850011E0C
:104B02000A1401AB1DE11DAE1DDA1DD31D01E20029
:104B1200E900EA00B500B600B700CD008301CC0081
:104B22008A01920194012102230224022502260213
:104B320027022A02B300B4006F0070009F01CB016C
:104B42009F02A002E200E900EA00B500B600B70049
:104B5200CD008301CC008A0192019401210223023B
:104B620024022502260227022A02B300B4006F00A3
:104B720070009F01CB019F02A00236323331F7F65B
:064B820097C634353C0229
:00000001FF
